{
  "contractName": "Marketplace",
  "abi": [
    {
      "inputs": [],
      "payable": false,
      "stateMutability": "nonpayable",
      "type": "constructor"
    },
    {
      "constant": false,
      "inputs": [
        {
          "internalType": "string",
          "name": "nom",
          "type": "string"
        },
        {
          "internalType": "string",
          "name": "adres",
          "type": "string"
        },
        {
          "internalType": "uint256",
          "name": "price",
          "type": "uint256"
        },
        {
          "internalType": "string[]",
          "name": "img",
          "type": "string[]"
        }
      ],
      "name": "createEstate",
      "outputs": [],
      "payable": false,
      "stateMutability": "nonpayable",
      "type": "function"
    },
    {
      "constant": false,
      "inputs": [
        {
          "internalType": "uint256",
          "name": "id",
          "type": "uint256"
        },
        {
          "internalType": "uint256",
          "name": "price",
          "type": "uint256"
        }
      ],
      "name": "setEstateSale",
      "outputs": [],
      "payable": false,
      "stateMutability": "nonpayable",
      "type": "function"
    },
    {
      "constant": false,
      "inputs": [
        {
          "internalType": "uint256",
          "name": "id",
          "type": "uint256"
        },
        {
          "internalType": "uint256",
          "name": "newPrice",
          "type": "uint256"
        }
      ],
      "name": "setPrice",
      "outputs": [],
      "payable": false,
      "stateMutability": "nonpayable",
      "type": "function"
    },
    {
      "constant": false,
      "inputs": [
        {
          "internalType": "uint256",
          "name": "id",
          "type": "uint256"
        },
        {
          "internalType": "string",
          "name": "newPostalAddress",
          "type": "string"
        }
      ],
      "name": "setPostalAddress",
      "outputs": [],
      "payable": false,
      "stateMutability": "nonpayable",
      "type": "function"
    },
    {
      "constant": false,
      "inputs": [
        {
          "internalType": "uint256",
          "name": "id",
          "type": "uint256"
        },
        {
          "internalType": "string",
          "name": "newName",
          "type": "string"
        }
      ],
      "name": "setName",
      "outputs": [],
      "payable": false,
      "stateMutability": "nonpayable",
      "type": "function"
    },
    {
      "constant": false,
      "inputs": [
        {
          "internalType": "uint256",
          "name": "id",
          "type": "uint256"
        }
      ],
      "name": "cancelEstateSale",
      "outputs": [],
      "payable": false,
      "stateMutability": "nonpayable",
      "type": "function"
    },
    {
      "constant": false,
      "inputs": [
        {
          "internalType": "uint256",
          "name": "id",
          "type": "uint256"
        }
      ],
      "name": "BuyEstate",
      "outputs": [],
      "payable": true,
      "stateMutability": "payable",
      "type": "function"
    },
    {
      "constant": true,
      "inputs": [],
      "name": "getAllEstates",
      "outputs": [
        {
          "components": [
            {
              "internalType": "uint256",
              "name": "_id",
              "type": "uint256"
            },
            {
              "internalType": "string",
              "name": "_name",
              "type": "string"
            },
            {
              "internalType": "string",
              "name": "_postalAddress",
              "type": "string"
            },
            {
              "internalType": "string[]",
              "name": "_images",
              "type": "string[]"
            },
            {
              "internalType": "uint256",
              "name": "_price",
              "type": "uint256"
            },
            {
              "internalType": "address payable",
              "name": "_ownerEstate",
              "type": "address"
            },
            {
              "internalType": "bool",
              "name": "_selling",
              "type": "bool"
            }
          ],
          "internalType": "struct Marketplace.estate[]",
          "name": "",
          "type": "tuple[]"
        }
      ],
      "payable": false,
      "stateMutability": "view",
      "type": "function"
    },
    {
      "constant": true,
      "inputs": [
        {
          "internalType": "address",
          "name": "addr",
          "type": "address"
        }
      ],
      "name": "getEstateByAddress",
      "outputs": [
        {
          "components": [
            {
              "internalType": "uint256",
              "name": "_id",
              "type": "uint256"
            },
            {
              "internalType": "string",
              "name": "_name",
              "type": "string"
            },
            {
              "internalType": "string",
              "name": "_postalAddress",
              "type": "string"
            },
            {
              "internalType": "string[]",
              "name": "_images",
              "type": "string[]"
            },
            {
              "internalType": "uint256",
              "name": "_price",
              "type": "uint256"
            },
            {
              "internalType": "address payable",
              "name": "_ownerEstate",
              "type": "address"
            },
            {
              "internalType": "bool",
              "name": "_selling",
              "type": "bool"
            }
          ],
          "internalType": "struct Marketplace.estate[]",
          "name": "",
          "type": "tuple[]"
        }
      ],
      "payable": false,
      "stateMutability": "view",
      "type": "function"
    },
    {
      "constant": true,
      "inputs": [
        {
          "internalType": "uint256",
          "name": "id",
          "type": "uint256"
        }
      ],
      "name": "getEstateById",
      "outputs": [
        {
          "components": [
            {
              "internalType": "uint256",
              "name": "_id",
              "type": "uint256"
            },
            {
              "internalType": "string",
              "name": "_name",
              "type": "string"
            },
            {
              "internalType": "string",
              "name": "_postalAddress",
              "type": "string"
            },
            {
              "internalType": "string[]",
              "name": "_images",
              "type": "string[]"
            },
            {
              "internalType": "uint256",
              "name": "_price",
              "type": "uint256"
            },
            {
              "internalType": "address payable",
              "name": "_ownerEstate",
              "type": "address"
            },
            {
              "internalType": "bool",
              "name": "_selling",
              "type": "bool"
            }
          ],
          "internalType": "struct Marketplace.estate",
          "name": "",
          "type": "tuple"
        }
      ],
      "payable": false,
      "stateMutability": "view",
      "type": "function"
    }
  ],
  "bytecode": "0x608060405234801561001057600080fd5b5033600160006101000a81548173ffffffffffffffffffffffffffffffffffffffff021916908373ffffffffffffffffffffffffffffffffffffffff160217905550612255806100616000396000f3fe6080604052600436106100915760003560e01c80635e554415116100595780635e5544151461018d578063b6d81de6146101b6578063ce2a4015146101df578063f7d97577146101fb578063fe55932a1461022457610091565b80630626f3f1146100965780632f05e9e6146100c15780633cbab756146100fe5780634b52f38a14610127578063558ee2a914610150575b600080fd5b3480156100a257600080fd5b506100ab61024d565b6040516100b89190611f27565b60405180910390f35b3480156100cd57600080fd5b506100e860048036036100e391908101906119a8565b61055e565b6040516100f59190611f27565b60405180910390f35b34801561010a57600080fd5b5061012560048036036101209190810190611aa5565b610914565b005b34801561013357600080fd5b5061014e60048036036101499190810190611af9565b6109f7565b005b34801561015c57600080fd5b5061017760048036036101729190810190611a7c565b610b21565b6040516101849190611fc9565b60405180910390f35b34801561019957600080fd5b506101b460048036036101af91908101906119d1565b610e00565b005b3480156101c257600080fd5b506101dd60048036036101d89190810190611a7c565b611103565b005b6101f960048036036101f49190810190611a7c565b6111e9565b005b34801561020757600080fd5b50610222600480360361021d9190810190611af9565b61145e565b005b34801561023057600080fd5b5061024b60048036036102469190810190611aa5565b611531565b005b60606002805480602002602001604051908101604052809291908181526020016000905b8282101561055557838290600052602060002090600602016040518060e001604052908160008201548152602001600182018054600181600116156101000203166002900480601f0160208091040260200160405190810160405280929190818152602001828054600181600116156101000203166002900480156103375780601f1061030c57610100808354040283529160200191610337565b820191906000526020600020905b81548152906001019060200180831161031a57829003601f168201915b50505050508152602001600282018054600181600116156101000203166002900480601f0160208091040260200160405190810160405280929190818152602001828054600181600116156101000203166002900480156103d95780601f106103ae576101008083540402835291602001916103d9565b820191906000526020600020905b8154815290600101906020018083116103bc57829003601f168201915b5050505050815260200160038201805480602002602001604051908101604052809291908181526020016000905b828210156104c3578382906000526020600020018054600181600116156101000203166002900480601f0160208091040260200160405190810160405280929190818152602001828054600181600116156101000203166002900480156104af5780601f10610484576101008083540402835291602001916104af565b820191906000526020600020905b81548152906001019060200180831161049257829003601f168201915b505050505081526020019060010190610407565b505050508152602001600482015481526020016005820160009054906101000a900473ffffffffffffffffffffffffffffffffffffffff1673ffffffffffffffffffffffffffffffffffffffff1673ffffffffffffffffffffffffffffffffffffffff1681526020016005820160149054906101000a900460ff16151515158152505081526020019060010190610271565b50505050905090565b6060806060600360008573ffffffffffffffffffffffffffffffffffffffff1673ffffffffffffffffffffffffffffffffffffffff1681526020019081526020016000208054806020026020016040519081016040528092919081815260200182805480156105ec57602002820191906000526020600020905b8154815260200190600101908083116105d8575b5050505050905060008090505b8151811015610909576004600083838151811061061257fe5b602002602001015181526020019081526020016000206040518060e001604052908160008201548152602001600182018054600181600116156101000203166002900480601f0160208091040260200160405190810160405280929190818152602001828054600181600116156101000203166002900480156106d65780601f106106ab576101008083540402835291602001916106d6565b820191906000526020600020905b8154815290600101906020018083116106b957829003601f168201915b50505050508152602001600282018054600181600116156101000203166002900480601f0160208091040260200160405190810160405280929190818152602001828054600181600116156101000203166002900480156107785780601f1061074d57610100808354040283529160200191610778565b820191906000526020600020905b81548152906001019060200180831161075b57829003601f168201915b5050505050815260200160038201805480602002602001604051908101604052809291908181526020016000905b82821015610862578382906000526020600020018054600181600116156101000203166002900480601f01602080910402602001604051908101604052809291908181526020018280546001816001161561010002031660029004801561084e5780601f106108235761010080835404028352916020019161084e565b820191906000526020600020905b81548152906001019060200180831161083157829003601f168201915b5050505050815260200190600101906107a6565b505050508152602001600482015481526020016005820160009054906101000a900473ffffffffffffffffffffffffffffffffffffffff1673ffffffffffffffffffffffffffffffffffffffff1673ffffffffffffffffffffffffffffffffffffffff1681526020016005820160149054906101000a900460ff1615151515815250508382815181106108f157fe5b602002602001018190525080806001019150506105f9565b508192505050919050565b3373ffffffffffffffffffffffffffffffffffffffff166002838154811061093857fe5b906000526020600020906006020160050160009054906101000a900473ffffffffffffffffffffffffffffffffffffffff1673ffffffffffffffffffffffffffffffffffffffff16146109c0576040517f08c379a00000000000000000000000000000000000000000000000000000000081526004016109b790611f89565b60405180910390fd5b80600283815481106109ce57fe5b906000526020600020906006020160020190805190602001906109f2929190611614565b505050565b3373ffffffffffffffffffffffffffffffffffffffff1660028381548110610a1b57fe5b906000526020600020906006020160050160009054906101000a900473ffffffffffffffffffffffffffffffffffffffff1673ffffffffffffffffffffffffffffffffffffffff1614610aa3576040517f08c379a0000000000000000000000000000000000000000000000000000000008152600401610a9a90611f89565b60405180910390fd5b600a8111610ae6576040517f08c379a0000000000000000000000000000000000000000000000000000000008152600401610add90611f69565b60405180910390fd5b600160028381548110610af557fe5b906000526020600020906006020160050160146101000a81548160ff0219169083151502179055505050565b610b29611694565b600460008381526020019081526020016000206040518060e001604052908160008201548152602001600182018054600181600116156101000203166002900480601f016020809104026020016040519081016040528092919081815260200182805460018160011615610100020316600290048015610bea5780601f10610bbf57610100808354040283529160200191610bea565b820191906000526020600020905b815481529060010190602001808311610bcd57829003601f168201915b50505050508152602001600282018054600181600116156101000203166002900480601f016020809104026020016040519081016040528092919081815260200182805460018160011615610100020316600290048015610c8c5780601f10610c6157610100808354040283529160200191610c8c565b820191906000526020600020905b815481529060010190602001808311610c6f57829003601f168201915b5050505050815260200160038201805480602002602001604051908101604052809291908181526020016000905b82821015610d76578382906000526020600020018054600181600116156101000203166002900480601f016020809104026020016040519081016040528092919081815260200182805460018160011615610100020316600290048015610d625780601f10610d3757610100808354040283529160200191610d62565b820191906000526020600020905b815481529060010190602001808311610d4557829003601f168201915b505050505081526020019060010190610cba565b505050508152602001600482015481526020016005820160009054906101000a900473ffffffffffffffffffffffffffffffffffffffff1673ffffffffffffffffffffffffffffffffffffffff1673ffffffffffffffffffffffffffffffffffffffff1681526020016005820160149054906101000a900460ff1615151515815250509050919050565b600a8211610e43576040517f08c379a0000000000000000000000000000000000000000000000000000000008152600401610e3a90611f69565b60405180910390fd5b60006001600280549050039050610e58611694565b6040518060e001604052808381526020018781526020018681526020018481526020018581526020013373ffffffffffffffffffffffffffffffffffffffff16815260200160001515815250905060028190806001815401808255809150509060018203906000526020600020906006020160009091929091909150600082015181600001556020820151816001019080519060200190610efa9291906116e9565b506040820151816002019080519060200190610f179291906116e9565b506060820151816003019080519060200190610f34929190611769565b506080820151816004015560a08201518160050160006101000a81548173ffffffffffffffffffffffffffffffffffffffff021916908373ffffffffffffffffffffffffffffffffffffffff16021790555060c08201518160050160146101000a81548160ff0219169083151502179055505050508060046000848152602001908152602001600020600082015181600001556020820151816001019080519060200190610fe39291906116e9565b5060408201518160020190805190602001906110009291906116e9565b50606082015181600301908051906020019061101d929190611769565b506080820151816004015560a08201518160050160006101000a81548173ffffffffffffffffffffffffffffffffffffffff021916908373ffffffffffffffffffffffffffffffffffffffff16021790555060c08201518160050160146101000a81548160ff021916908315150217905550905050600360003373ffffffffffffffffffffffffffffffffffffffff1673ffffffffffffffffffffffffffffffffffffffff168152602001908152602001600020829080600181540180825580915050906001820390600052602060002001600090919290919091505550505050505050565b3373ffffffffffffffffffffffffffffffffffffffff166002828154811061112757fe5b906000526020600020906006020160050160009054906101000a900473ffffffffffffffffffffffffffffffffffffffff1673ffffffffffffffffffffffffffffffffffffffff16146111af576040517f08c379a00000000000000000000000000000000000000000000000000000000081526004016111a690611f89565b60405180910390fd5b6000600282815481106111be57fe5b906000526020600020906006020160050160146101000a81548160ff02191690831515021790555050565b600281815481106111f657fe5b906000526020600020906006020160050160149054906101000a900460ff16611254576040517f08c379a000000000000000000000000000000000000000000000000000000000815260040161124b90611f49565b60405180910390fd5b60006002828154811061126357fe5b906000526020600020906006020160050160009054906101000a900473ffffffffffffffffffffffffffffffffffffffff1690506000600283815481106112a657fe5b9060005260206000209060060201600401549050803410156112fd576040517f08c379a00000000000000000000000000000000000000000000000000000000081526004016112f490611fa9565b60405180910390fd5b6000600a348161130957fe5b049050600081340390508373ffffffffffffffffffffffffffffffffffffffff166108fc829081150290604051600060405180830381858888f19350505050158015611359573d6000803e3d6000fd5b50600160009054906101000a900473ffffffffffffffffffffffffffffffffffffffff1673ffffffffffffffffffffffffffffffffffffffff166108fc839081150290604051600060405180830381858888f193505050501580156113c2573d6000803e3d6000fd5b5033600286815481106113d157fe5b906000526020600020906006020160050160006101000a81548173ffffffffffffffffffffffffffffffffffffffff021916908373ffffffffffffffffffffffffffffffffffffffff16021790555060006002868154811061142f57fe5b906000526020600020906006020160050160146101000a81548160ff0219169083151502179055505050505050565b3373ffffffffffffffffffffffffffffffffffffffff166002838154811061148257fe5b906000526020600020906006020160050160009054906101000a900473ffffffffffffffffffffffffffffffffffffffff1673ffffffffffffffffffffffffffffffffffffffff161461150a576040517f08c379a000000000000000000000000000000000000000000000000000000000815260040161150190611f89565b60405180910390fd5b806002838154811061151857fe5b9060005260206000209060060201600401819055505050565b3373ffffffffffffffffffffffffffffffffffffffff166002838154811061155557fe5b906000526020600020906006020160050160009054906101000a900473ffffffffffffffffffffffffffffffffffffffff1673ffffffffffffffffffffffffffffffffffffffff16146115dd576040517f08c379a00000000000000000000000000000000000000000000000000000000081526004016115d490611f89565b60405180910390fd5b80600283815481106115eb57fe5b9060005260206000209060060201600101908051906020019061160f929190611614565b505050565b828054600181600116156101000203166002900490600052602060002090601f016020900481019282601f1061165557805160ff1916838001178555611683565b82800160010185558215611683579182015b82811115611682578251825591602001919060010190611667565b5b50905061169091906117c9565b5090565b6040518060e001604052806000815260200160608152602001606081526020016060815260200160008152602001600073ffffffffffffffffffffffffffffffffffffffff1681526020016000151581525090565b828054600181600116156101000203166002900490600052602060002090601f016020900481019282601f1061172a57805160ff1916838001178555611758565b82800160010185558215611758579182015b8281111561175757825182559160200191906001019061173c565b5b50905061176591906117c9565b5090565b8280548282559060005260206000209081019282156117b8579160200282015b828111156117b75782518290805190602001906117a79291906116e9565b5091602001919060010190611789565b5b5090506117c591906117ee565b5090565b6117eb91905b808211156117e75760008160009055506001016117cf565b5090565b90565b61181791905b80821115611813576000818161180a919061181a565b506001016117f4565b5090565b90565b50805460018160011615610100020316600290046000825580601f10611840575061185f565b601f01602090049060005260206000209081019061185e91906117c9565b5b50565b600081359050611871816121e4565b92915050565b600082601f83011261188857600080fd5b813561189b61189682612018565b611feb565b9150818183526020840193506020810190508360005b838110156118e157813586016118c788826118eb565b8452602084019350602083019250506001810190506118b1565b5050505092915050565b600082601f8301126118fc57600080fd5b813561190f61190a82612040565b611feb565b9150808252602083016020830185838301111561192b57600080fd5b611936838284612191565b50505092915050565b600082601f83011261195057600080fd5b813561196361195e8261206c565b611feb565b9150808252602083016020830185838301111561197f57600080fd5b61198a838284612191565b50505092915050565b6000813590506119a2816121fb565b92915050565b6000602082840312156119ba57600080fd5b60006119c884828501611862565b91505092915050565b600080600080608085870312156119e757600080fd5b600085013567ffffffffffffffff811115611a0157600080fd5b611a0d8782880161193f565b945050602085013567ffffffffffffffff811115611a2a57600080fd5b611a368782880161193f565b9350506040611a4787828801611993565b925050606085013567ffffffffffffffff811115611a6457600080fd5b611a7087828801611877565b91505092959194509250565b600060208284031215611a8e57600080fd5b6000611a9c84828501611993565b91505092915050565b60008060408385031215611ab857600080fd5b6000611ac685828601611993565b925050602083013567ffffffffffffffff811115611ae357600080fd5b611aef8582860161193f565b9150509250929050565b60008060408385031215611b0c57600080fd5b6000611b1a85828601611993565b9250506020611b2b85828601611993565b9150509250929050565b6000611b418383611c65565b905092915050565b6000611b558383611e6e565b905092915050565b611b6681612149565b82525050565b6000611b77826120b8565b611b8181856120f3565b935083602082028501611b9385612098565b8060005b85811015611bcf5784840389528151611bb08582611b35565b9450611bbb836120d9565b925060208a01995050600181019050611b97565b50829750879550505050505092915050565b6000611bec826120c3565b611bf68185612104565b935083602082028501611c08856120a8565b8060005b85811015611c445784840389528151611c258582611b49565b9450611c30836120e6565b925060208a01995050600181019050611c0c565b50829750879550505050505092915050565b611c5f8161215b565b82525050565b6000611c70826120ce565b611c7a8185612115565b9350611c8a8185602086016121a0565b611c93816121d3565b840191505092915050565b6000611cab601283612126565b91507f6e276573742070617320656e2076656e746500000000000000000000000000006000830152602082019050919050565b6000611ceb602083612126565b91507f6c65207072697820646f697420657472652073757065726965757220612031306000830152602082019050919050565b6000611d2b602183612126565b91507f7475206e27657374207061732070726f7072696574616972652064752062696560008301527f6e000000000000000000000000000000000000000000000000000000000000006020830152604082019050919050565b6000611d91601283612126565b91507f4d616e717565206465206c27617267656e7400000000000000000000000000006000830152602082019050919050565b600060e083016000830151611ddc6000860182611f18565b5060208301518482036020860152611df48282611c65565b91505060408301518482036040860152611e0e8282611c65565b91505060608301518482036060860152611e288282611b6c565b9150506080830151611e3d6080860182611f18565b5060a0830151611e5060a0860182611b5d565b5060c0830151611e6360c0860182611c56565b508091505092915050565b600060e083016000830151611e866000860182611f18565b5060208301518482036020860152611e9e8282611c65565b91505060408301518482036040860152611eb88282611c65565b91505060608301518482036060860152611ed28282611b6c565b9150506080830151611ee76080860182611f18565b5060a0830151611efa60a0860182611b5d565b5060c0830151611f0d60c0860182611c56565b508091505092915050565b611f2181612187565b82525050565b60006020820190508181036000830152611f418184611be1565b905092915050565b60006020820190508181036000830152611f6281611c9e565b9050919050565b60006020820190508181036000830152611f8281611cde565b9050919050565b60006020820190508181036000830152611fa281611d1e565b9050919050565b60006020820190508181036000830152611fc281611d84565b9050919050565b60006020820190508181036000830152611fe38184611dc4565b905092915050565b6000604051905081810181811067ffffffffffffffff8211171561200e57600080fd5b8060405250919050565b600067ffffffffffffffff82111561202f57600080fd5b602082029050602081019050919050565b600067ffffffffffffffff82111561205757600080fd5b601f19601f8301169050602081019050919050565b600067ffffffffffffffff82111561208357600080fd5b601f19601f8301169050602081019050919050565b6000819050602082019050919050565b6000819050602082019050919050565b600081519050919050565b600081519050919050565b600081519050919050565b6000602082019050919050565b6000602082019050919050565b600082825260208201905092915050565b600082825260208201905092915050565b600082825260208201905092915050565b600082825260208201905092915050565b600061214282612167565b9050919050565b600061215482612167565b9050919050565b60008115159050919050565b600073ffffffffffffffffffffffffffffffffffffffff82169050919050565b6000819050919050565b82818337600083830152505050565b60005b838110156121be5780820151818401526020810190506121a3565b838111156121cd576000848401525b50505050565b6000601f19601f8301169050919050565b6121ed81612137565b81146121f857600080fd5b50565b61220481612187565b811461220f57600080fd5b5056fea365627a7a723158206088382040fb156ad0cd7d6de48f48ad1c312403a694ed81c16e0df18fad40026c6578706572696d656e74616cf564736f6c63430005100040",
  "source": "// SPDX-License-Identifier: MIT\npragma solidity >=0.5.0 <0.8.0;\npragma experimental ABIEncoderV2;\n\ncontract Marketplace {\n    struct estate {\n        uint _id;\n        string _name;\n        string _postalAddress;\n        string[] _images;\n        uint _price;\n        address payable _ownerEstate;\n        bool _selling;\n    }\n\n    string[] _sales;\n    address payable _owner;\n    estate[] _estates;\n\n    mapping(address => uint[]) _ownerEstate;\n    mapping(uint => estate) _idEstate;\n\n    constructor() public {\n        _owner = msg.sender;\n    }\n\n\n    function createEstate(string memory nom, string memory adres, uint price, string[] memory img) public {\n        require(price > 10, \"le prix doit etre superieur a 10\");\n        uint id = _estates.length - 1;\n        estate memory create = estate(id, nom, adres, img, price, msg.sender, false);\n        _estates.push(create);\n        _idEstate[id] = create;\n        _ownerEstate[msg.sender].push(id);\n    }\n\n    function setEstateSale(uint id, uint price) public {\n        require(_estates[id]._ownerEstate == msg.sender, \"tu n'est pas proprietaire du bien\");\n        require(price > 10, \"le prix doit etre superieur a 10\");\n        _estates[id]._selling = true;\n    }\n\n    function setPrice(uint id, uint newPrice) public {\n        require(_estates[id]._ownerEstate == msg.sender, \"tu n'est pas proprietaire du bien\");\n        _estates[id]._price = newPrice;\n    }\n\n    function setPostalAddress(uint id, string memory newPostalAddress) public {\n        require(_estates[id]._ownerEstate == msg.sender, \"tu n'est pas proprietaire du bien\");\n        _estates[id]._postalAddress = newPostalAddress;\n    }\n\n    function setName(uint id, string memory newName) public {\n        require(_estates[id]._ownerEstate == msg.sender, \"tu n'est pas proprietaire du bien\");\n        _estates[id]._name = newName;\n    }\n\n    function cancelEstateSale(uint id) public {\n        require(_estates[id]._ownerEstate == msg.sender, \"tu n'est pas proprietaire du bien\");\n        _estates[id]._selling = false;\n    }\n\n    function BuyEstate(uint id) public payable {\n        require(_estates[id]._selling, \"n'est pas en vente\");\n\n        address payable seller = _estates[id]._ownerEstate;\n\n        uint price = _estates[id]._price;\n\n        require(msg.value >= price, 'Manque de l\\'argent');\n\n        uint commission = msg.value / 10;\n        uint sale = msg.value - commission;\n\n        seller.transfer(sale);\n        _owner.transfer(commission);\n\n        _estates[id]._ownerEstate = msg.sender;\n        _estates[id]._selling = false;\n    }\n\n    function getAllEstates() public view returns (estate[] memory){\n        return _estates;\n    }\n\n    function getEstateByAddress(address addr) public view returns (estate[] memory){\n        estate[] memory estatesList;\n        uint[] memory estateIds = _ownerEstate[addr];\n        for (uint i = 0; i < estateIds.length; i++) {\n            estatesList[i] = _idEstate[estateIds[i]];\n        }\n        return estatesList;\n    }\n\n    function getEstateById(uint id) public view returns (estate memory){\n        return _idEstate[id];\n    }\n}",
  "sourcePath": "/Users/ismaelmohamed/Documents/Courses/supinfo/5BLOC/estate_marketplace/src/contracts/Marketplace.sol",
  "compiler": {
    "name": "solc",
    "version": "0.5.16+commit.9c3226ce.Emscripten.clang"
  },
  "schemaVersion": "3.3.3",
  "updatedAt": "2021-03-02T05:49:08.539Z",
  "networkType": "ethereum",
  "devdoc": {
    "methods": {}
  },
  "userdoc": {
    "methods": {}
  }
}