{
  "contractName": "Marketplace",
  "abi": [
    {
      "inputs": [],
      "payable": false,
      "stateMutability": "nonpayable",
      "type": "constructor"
    },
    {
      "constant": false,
      "inputs": [
        {
          "internalType": "string",
          "name": "nom",
          "type": "string"
        },
        {
          "internalType": "string",
          "name": "adres",
          "type": "string"
        },
        {
          "internalType": "uint256",
          "name": "price",
          "type": "uint256"
        },
        {
          "internalType": "string[]",
          "name": "img",
          "type": "string[]"
        }
      ],
      "name": "createEstate",
      "outputs": [],
      "payable": false,
      "stateMutability": "nonpayable",
      "type": "function"
    },
    {
      "constant": false,
      "inputs": [
        {
          "internalType": "uint256",
          "name": "id",
          "type": "uint256"
        },
        {
          "internalType": "string",
          "name": "newName",
          "type": "string"
        },
        {
          "internalType": "string",
          "name": "newPostalAddress",
          "type": "string"
        },
        {
          "internalType": "uint256",
          "name": "newPrice",
          "type": "uint256"
        },
        {
          "internalType": "bool",
          "name": "newSelling",
          "type": "bool"
        },
        {
          "internalType": "string[]",
          "name": "newImages",
          "type": "string[]"
        }
      ],
      "name": "updateEstate",
      "outputs": [],
      "payable": false,
      "stateMutability": "nonpayable",
      "type": "function"
    },
    {
      "constant": false,
      "inputs": [
        {
          "internalType": "uint256",
          "name": "id",
          "type": "uint256"
        }
      ],
      "name": "buyEstate",
      "outputs": [],
      "payable": true,
      "stateMutability": "payable",
      "type": "function"
    },
    {
      "constant": true,
      "inputs": [],
      "name": "getAllEstates",
      "outputs": [
        {
          "components": [
            {
              "internalType": "uint256",
              "name": "_id",
              "type": "uint256"
            },
            {
              "internalType": "string",
              "name": "_name",
              "type": "string"
            },
            {
              "internalType": "string",
              "name": "_postalAddress",
              "type": "string"
            },
            {
              "internalType": "string[]",
              "name": "_images",
              "type": "string[]"
            },
            {
              "internalType": "uint256",
              "name": "_price",
              "type": "uint256"
            },
            {
              "internalType": "address payable",
              "name": "_ownerEstate",
              "type": "address"
            },
            {
              "internalType": "bool",
              "name": "_selling",
              "type": "bool"
            }
          ],
          "internalType": "struct Marketplace.estate[]",
          "name": "",
          "type": "tuple[]"
        }
      ],
      "payable": false,
      "stateMutability": "view",
      "type": "function"
    },
    {
      "constant": true,
      "inputs": [
        {
          "internalType": "address",
          "name": "addr",
          "type": "address"
        }
      ],
      "name": "getEstateByAddress",
      "outputs": [
        {
          "components": [
            {
              "internalType": "uint256",
              "name": "_id",
              "type": "uint256"
            },
            {
              "internalType": "string",
              "name": "_name",
              "type": "string"
            },
            {
              "internalType": "string",
              "name": "_postalAddress",
              "type": "string"
            },
            {
              "internalType": "string[]",
              "name": "_images",
              "type": "string[]"
            },
            {
              "internalType": "uint256",
              "name": "_price",
              "type": "uint256"
            },
            {
              "internalType": "address payable",
              "name": "_ownerEstate",
              "type": "address"
            },
            {
              "internalType": "bool",
              "name": "_selling",
              "type": "bool"
            }
          ],
          "internalType": "struct Marketplace.estate[]",
          "name": "",
          "type": "tuple[]"
        }
      ],
      "payable": false,
      "stateMutability": "view",
      "type": "function"
    },
    {
      "constant": true,
      "inputs": [
        {
          "internalType": "uint256",
          "name": "id",
          "type": "uint256"
        }
      ],
      "name": "getEstateById",
      "outputs": [
        {
          "components": [
            {
              "internalType": "uint256",
              "name": "_id",
              "type": "uint256"
            },
            {
              "internalType": "string",
              "name": "_name",
              "type": "string"
            },
            {
              "internalType": "string",
              "name": "_postalAddress",
              "type": "string"
            },
            {
              "internalType": "string[]",
              "name": "_images",
              "type": "string[]"
            },
            {
              "internalType": "uint256",
              "name": "_price",
              "type": "uint256"
            },
            {
              "internalType": "address payable",
              "name": "_ownerEstate",
              "type": "address"
            },
            {
              "internalType": "bool",
              "name": "_selling",
              "type": "bool"
            }
          ],
          "internalType": "struct Marketplace.estate",
          "name": "",
          "type": "tuple"
        }
      ],
      "payable": false,
      "stateMutability": "view",
      "type": "function"
    }
  ],
  "bytecode": "0x608060405234801561001057600080fd5b5033600160006101000a81548173ffffffffffffffffffffffffffffffffffffffff021916908373ffffffffffffffffffffffffffffffffffffffff160217905550611fb9806100616000396000f3fe6080604052600436106100555760003560e01c80630626f3f11461005a5780632f05e9e61461008557806343e02d7d146100c2578063558ee2a9146100eb5780635e5544151461012857806375c178b714610151575b600080fd5b34801561006657600080fd5b5061006f61016d565b60405161007c9190611c74565b60405180910390f35b34801561009157600080fd5b506100ac60048036036100a791908101906116b4565b61047e565b6040516100b99190611c74565b60405180910390f35b3480156100ce57600080fd5b506100e960048036036100e491908101906117b1565b610834565b005b3480156100f757600080fd5b50610112600480360361010d9190810190611788565b610a54565b60405161011f9190611d16565b60405180910390f35b34801561013457600080fd5b5061014f600480360361014a91908101906116dd565b610d33565b005b61016b60048036036101669190810190611788565b611036565b005b60606002805480602002602001604051908101604052809291908181526020016000905b8282101561047557838290600052602060002090600602016040518060e001604052908160008201548152602001600182018054600181600116156101000203166002900480601f0160208091040260200160405190810160405280929190818152602001828054600181600116156101000203166002900480156102575780601f1061022c57610100808354040283529160200191610257565b820191906000526020600020905b81548152906001019060200180831161023a57829003601f168201915b50505050508152602001600282018054600181600116156101000203166002900480601f0160208091040260200160405190810160405280929190818152602001828054600181600116156101000203166002900480156102f95780601f106102ce576101008083540402835291602001916102f9565b820191906000526020600020905b8154815290600101906020018083116102dc57829003601f168201915b5050505050815260200160038201805480602002602001604051908101604052809291908181526020016000905b828210156103e3578382906000526020600020018054600181600116156101000203166002900480601f0160208091040260200160405190810160405280929190818152602001828054600181600116156101000203166002900480156103cf5780601f106103a4576101008083540402835291602001916103cf565b820191906000526020600020905b8154815290600101906020018083116103b257829003601f168201915b505050505081526020019060010190610327565b505050508152602001600482015481526020016005820160009054906101000a900473ffffffffffffffffffffffffffffffffffffffff1673ffffffffffffffffffffffffffffffffffffffff1673ffffffffffffffffffffffffffffffffffffffff1681526020016005820160149054906101000a900460ff16151515158152505081526020019060010190610191565b50505050905090565b6060806060600360008573ffffffffffffffffffffffffffffffffffffffff1673ffffffffffffffffffffffffffffffffffffffff16815260200190815260200160002080548060200260200160405190810160405280929190818152602001828054801561050c57602002820191906000526020600020905b8154815260200190600101908083116104f8575b5050505050905060008090505b8151811015610829576004600083838151811061053257fe5b602002602001015181526020019081526020016000206040518060e001604052908160008201548152602001600182018054600181600116156101000203166002900480601f0160208091040260200160405190810160405280929190818152602001828054600181600116156101000203166002900480156105f65780601f106105cb576101008083540402835291602001916105f6565b820191906000526020600020905b8154815290600101906020018083116105d957829003601f168201915b50505050508152602001600282018054600181600116156101000203166002900480601f0160208091040260200160405190810160405280929190818152602001828054600181600116156101000203166002900480156106985780601f1061066d57610100808354040283529160200191610698565b820191906000526020600020905b81548152906001019060200180831161067b57829003601f168201915b5050505050815260200160038201805480602002602001604051908101604052809291908181526020016000905b82821015610782578382906000526020600020018054600181600116156101000203166002900480601f01602080910402602001604051908101604052809291908181526020018280546001816001161561010002031660029004801561076e5780601f106107435761010080835404028352916020019161076e565b820191906000526020600020905b81548152906001019060200180831161075157829003601f168201915b5050505050815260200190600101906106c6565b505050508152602001600482015481526020016005820160009054906101000a900473ffffffffffffffffffffffffffffffffffffffff1673ffffffffffffffffffffffffffffffffffffffff1673ffffffffffffffffffffffffffffffffffffffff1681526020016005820160149054906101000a900460ff16151515158152505083828151811061081157fe5b60200260200101819052508080600101915050610519565b508192505050919050565b3373ffffffffffffffffffffffffffffffffffffffff166002878154811061085857fe5b906000526020600020906006020160050160009054906101000a900473ffffffffffffffffffffffffffffffffffffffff1673ffffffffffffffffffffffffffffffffffffffff16146108e0576040517f08c379a00000000000000000000000000000000000000000000000000000000081526004016108d790611cd6565b60405180910390fd5b600a8311610923576040517f08c379a000000000000000000000000000000000000000000000000000000000815260040161091a90611cb6565b60405180910390fd5b60016002878154811061093257fe5b906000526020600020906006020160050160146101000a81548160ff021916908315150217905550826002878154811061096857fe5b906000526020600020906006020160040181905550836002878154811061098b57fe5b906000526020600020906006020160020190805190602001906109af9291906112ab565b5084600287815481106109be57fe5b906000526020600020906006020160010190805190602001906109e29291906112ab565b5081600287815481106109f157fe5b906000526020600020906006020160050160146101000a81548160ff0219169083151502179055508060028781548110610a2757fe5b90600052602060002090600602016003019080519060200190610a4b92919061132b565b50505050505050565b610a5c61138b565b600460008381526020019081526020016000206040518060e001604052908160008201548152602001600182018054600181600116156101000203166002900480601f016020809104026020016040519081016040528092919081815260200182805460018160011615610100020316600290048015610b1d5780601f10610af257610100808354040283529160200191610b1d565b820191906000526020600020905b815481529060010190602001808311610b0057829003601f168201915b50505050508152602001600282018054600181600116156101000203166002900480601f016020809104026020016040519081016040528092919081815260200182805460018160011615610100020316600290048015610bbf5780601f10610b9457610100808354040283529160200191610bbf565b820191906000526020600020905b815481529060010190602001808311610ba257829003601f168201915b5050505050815260200160038201805480602002602001604051908101604052809291908181526020016000905b82821015610ca9578382906000526020600020018054600181600116156101000203166002900480601f016020809104026020016040519081016040528092919081815260200182805460018160011615610100020316600290048015610c955780601f10610c6a57610100808354040283529160200191610c95565b820191906000526020600020905b815481529060010190602001808311610c7857829003601f168201915b505050505081526020019060010190610bed565b505050508152602001600482015481526020016005820160009054906101000a900473ffffffffffffffffffffffffffffffffffffffff1673ffffffffffffffffffffffffffffffffffffffff1673ffffffffffffffffffffffffffffffffffffffff1681526020016005820160149054906101000a900460ff1615151515815250509050919050565b600a8211610d76576040517f08c379a0000000000000000000000000000000000000000000000000000000008152600401610d6d90611cb6565b60405180910390fd5b60006001600280549050039050610d8b61138b565b6040518060e001604052808381526020018781526020018681526020018481526020018581526020013373ffffffffffffffffffffffffffffffffffffffff16815260200160001515815250905060028190806001815401808255809150509060018203906000526020600020906006020160009091929091909150600082015181600001556020820151816001019080519060200190610e2d9291906113e0565b506040820151816002019080519060200190610e4a9291906113e0565b506060820151816003019080519060200190610e67929190611460565b506080820151816004015560a08201518160050160006101000a81548173ffffffffffffffffffffffffffffffffffffffff021916908373ffffffffffffffffffffffffffffffffffffffff16021790555060c08201518160050160146101000a81548160ff0219169083151502179055505050508060046000848152602001908152602001600020600082015181600001556020820151816001019080519060200190610f169291906113e0565b506040820151816002019080519060200190610f339291906113e0565b506060820151816003019080519060200190610f50929190611460565b506080820151816004015560a08201518160050160006101000a81548173ffffffffffffffffffffffffffffffffffffffff021916908373ffffffffffffffffffffffffffffffffffffffff16021790555060c08201518160050160146101000a81548160ff021916908315150217905550905050600360003373ffffffffffffffffffffffffffffffffffffffff1673ffffffffffffffffffffffffffffffffffffffff168152602001908152602001600020829080600181540180825580915050906001820390600052602060002001600090919290919091505550505050505050565b6002818154811061104357fe5b906000526020600020906006020160050160149054906101000a900460ff166110a1576040517f08c379a000000000000000000000000000000000000000000000000000000000815260040161109890611c96565b60405180910390fd5b6000600282815481106110b057fe5b906000526020600020906006020160050160009054906101000a900473ffffffffffffffffffffffffffffffffffffffff1690506000600283815481106110f357fe5b90600052602060002090600602016004015490508034101561114a576040517f08c379a000000000000000000000000000000000000000000000000000000000815260040161114190611cf6565b60405180910390fd5b6000600a348161115657fe5b049050600081340390508373ffffffffffffffffffffffffffffffffffffffff166108fc829081150290604051600060405180830381858888f193505050501580156111a6573d6000803e3d6000fd5b50600160009054906101000a900473ffffffffffffffffffffffffffffffffffffffff1673ffffffffffffffffffffffffffffffffffffffff166108fc839081150290604051600060405180830381858888f1935050505015801561120f573d6000803e3d6000fd5b50336002868154811061121e57fe5b906000526020600020906006020160050160006101000a81548173ffffffffffffffffffffffffffffffffffffffff021916908373ffffffffffffffffffffffffffffffffffffffff16021790555060006002868154811061127c57fe5b906000526020600020906006020160050160146101000a81548160ff0219169083151502179055505050505050565b828054600181600116156101000203166002900490600052602060002090601f016020900481019282601f106112ec57805160ff191683800117855561131a565b8280016001018555821561131a579182015b828111156113195782518255916020019190600101906112fe565b5b50905061132791906114c0565b5090565b82805482825590600052602060002090810192821561137a579160200282015b828111156113795782518290805190602001906113699291906113e0565b509160200191906001019061134b565b5b50905061138791906114e5565b5090565b6040518060e001604052806000815260200160608152602001606081526020016060815260200160008152602001600073ffffffffffffffffffffffffffffffffffffffff1681526020016000151581525090565b828054600181600116156101000203166002900490600052602060002090601f016020900481019282601f1061142157805160ff191683800117855561144f565b8280016001018555821561144f579182015b8281111561144e578251825591602001919060010190611433565b5b50905061145c91906114c0565b5090565b8280548282559060005260206000209081019282156114af579160200282015b828111156114ae57825182908051906020019061149e9291906113e0565b5091602001919060010190611480565b5b5090506114bc91906114e5565b5090565b6114e291905b808211156114de5760008160009055506001016114c6565b5090565b90565b61150e91905b8082111561150a57600081816115019190611511565b506001016114eb565b5090565b90565b50805460018160011615610100020316600290046000825580601f106115375750611556565b601f01602090049060005260206000209081019061155591906114c0565b5b50565b60008135905061156881611f31565b92915050565b600082601f83011261157f57600080fd5b813561159261158d82611d65565b611d38565b9150818183526020840193506020810190508360005b838110156115d857813586016115be88826115f7565b8452602084019350602083019250506001810190506115a8565b5050505092915050565b6000813590506115f181611f48565b92915050565b600082601f83011261160857600080fd5b813561161b61161682611d8d565b611d38565b9150808252602083016020830185838301111561163757600080fd5b611642838284611ede565b50505092915050565b600082601f83011261165c57600080fd5b813561166f61166a82611db9565b611d38565b9150808252602083016020830185838301111561168b57600080fd5b611696838284611ede565b50505092915050565b6000813590506116ae81611f5f565b92915050565b6000602082840312156116c657600080fd5b60006116d484828501611559565b91505092915050565b600080600080608085870312156116f357600080fd5b600085013567ffffffffffffffff81111561170d57600080fd5b6117198782880161164b565b945050602085013567ffffffffffffffff81111561173657600080fd5b6117428782880161164b565b93505060406117538782880161169f565b925050606085013567ffffffffffffffff81111561177057600080fd5b61177c8782880161156e565b91505092959194509250565b60006020828403121561179a57600080fd5b60006117a88482850161169f565b91505092915050565b60008060008060008060c087890312156117ca57600080fd5b60006117d889828a0161169f565b965050602087013567ffffffffffffffff8111156117f557600080fd5b61180189828a0161164b565b955050604087013567ffffffffffffffff81111561181e57600080fd5b61182a89828a0161164b565b945050606061183b89828a0161169f565b935050608061184c89828a016115e2565b92505060a087013567ffffffffffffffff81111561186957600080fd5b61187589828a0161156e565b9150509295509295509295565b600061188e83836119b2565b905092915050565b60006118a28383611bbb565b905092915050565b6118b381611e96565b82525050565b60006118c482611e05565b6118ce8185611e40565b9350836020820285016118e085611de5565b8060005b8581101561191c57848403895281516118fd8582611882565b945061190883611e26565b925060208a019950506001810190506118e4565b50829750879550505050505092915050565b600061193982611e10565b6119438185611e51565b93508360208202850161195585611df5565b8060005b8581101561199157848403895281516119728582611896565b945061197d83611e33565b925060208a01995050600181019050611959565b50829750879550505050505092915050565b6119ac81611ea8565b82525050565b60006119bd82611e1b565b6119c78185611e62565b93506119d7818560208601611eed565b6119e081611f20565b840191505092915050565b60006119f8601283611e73565b91507f6e276573742070617320656e2076656e746500000000000000000000000000006000830152602082019050919050565b6000611a38602083611e73565b91507f6c65207072697820646f697420657472652073757065726965757220612031306000830152602082019050919050565b6000611a78602183611e73565b91507f7475206e27657374207061732070726f7072696574616972652064752062696560008301527f6e000000000000000000000000000000000000000000000000000000000000006020830152604082019050919050565b6000611ade601283611e73565b91507f4d616e717565206465206c27617267656e7400000000000000000000000000006000830152602082019050919050565b600060e083016000830151611b296000860182611c65565b5060208301518482036020860152611b4182826119b2565b91505060408301518482036040860152611b5b82826119b2565b91505060608301518482036060860152611b7582826118b9565b9150506080830151611b8a6080860182611c65565b5060a0830151611b9d60a08601826118aa565b5060c0830151611bb060c08601826119a3565b508091505092915050565b600060e083016000830151611bd36000860182611c65565b5060208301518482036020860152611beb82826119b2565b91505060408301518482036040860152611c0582826119b2565b91505060608301518482036060860152611c1f82826118b9565b9150506080830151611c346080860182611c65565b5060a0830151611c4760a08601826118aa565b5060c0830151611c5a60c08601826119a3565b508091505092915050565b611c6e81611ed4565b82525050565b60006020820190508181036000830152611c8e818461192e565b905092915050565b60006020820190508181036000830152611caf816119eb565b9050919050565b60006020820190508181036000830152611ccf81611a2b565b9050919050565b60006020820190508181036000830152611cef81611a6b565b9050919050565b60006020820190508181036000830152611d0f81611ad1565b9050919050565b60006020820190508181036000830152611d308184611b11565b905092915050565b6000604051905081810181811067ffffffffffffffff82111715611d5b57600080fd5b8060405250919050565b600067ffffffffffffffff821115611d7c57600080fd5b602082029050602081019050919050565b600067ffffffffffffffff821115611da457600080fd5b601f19601f8301169050602081019050919050565b600067ffffffffffffffff821115611dd057600080fd5b601f19601f8301169050602081019050919050565b6000819050602082019050919050565b6000819050602082019050919050565b600081519050919050565b600081519050919050565b600081519050919050565b6000602082019050919050565b6000602082019050919050565b600082825260208201905092915050565b600082825260208201905092915050565b600082825260208201905092915050565b600082825260208201905092915050565b6000611e8f82611eb4565b9050919050565b6000611ea182611eb4565b9050919050565b60008115159050919050565b600073ffffffffffffffffffffffffffffffffffffffff82169050919050565b6000819050919050565b82818337600083830152505050565b60005b83811015611f0b578082015181840152602081019050611ef0565b83811115611f1a576000848401525b50505050565b6000601f19601f8301169050919050565b611f3a81611e84565b8114611f4557600080fd5b50565b611f5181611ea8565b8114611f5c57600080fd5b50565b611f6881611ed4565b8114611f7357600080fd5b5056fea365627a7a72315820f05a7267d06efcc4bf72337bdde5ac1ce33393158e973d0383250d1ee59bcc996c6578706572696d656e74616cf564736f6c63430005100040",
  "source": "// SPDX-License-Identifier: MIT\npragma solidity >=0.5.0 <0.8.0;\npragma experimental ABIEncoderV2;\n\ncontract Marketplace {\n    struct estate {\n        uint _id;\n        string _name;\n        string _postalAddress;\n        string[] _images;\n        uint _price;\n        address payable _ownerEstate;\n        bool _selling;\n    }\n\n    string[] _sales;\n    address payable _owner;\n    estate[] _estates;\n\n    mapping(address => uint[]) _ownerEstate;\n    mapping(uint => estate) _idEstate;\n\n    constructor() public {\n        _owner = msg.sender;\n    }\n\n\n    function createEstate(string memory nom, string memory adres, uint price, string[] memory img) public {\n        require(price > 10, \"le prix doit etre superieur a 10\");\n        uint id = _estates.length - 1;\n        estate memory create = estate(id, nom, adres, img, price, msg.sender, false);\n        _estates.push(create);\n        _idEstate[id] = create;\n        _ownerEstate[msg.sender].push(id);\n    }\n\n\n    function updateEstate(uint id, string memory newName, string memory newPostalAddress, uint newPrice, bool newSelling, string[] memory newImages) public{\n        require(_estates[id]._ownerEstate == msg.sender, \"tu n'est pas proprietaire du bien\");\n        require( newPrice > 10, \"le prix doit etre superieur a 10\" );\n        _estates[id]._selling = true;\n        _estates[id]._price = newPrice;\n        _estates[id]._postalAddress = newPostalAddress;\n        _estates[id]._name = newName;\n        _estates[id]._selling = newSelling;\n        _estates[id]._images = newImages;\n    }\n\n\n    function buyEstate(uint id) public payable {\n        require(_estates[id]._selling, \"n'est pas en vente\");\n\n        address payable seller = _estates[id]._ownerEstate;\n\n        uint price = _estates[id]._price;\n\n\n        require(msg.value >= price, 'Manque de l\\'argent');\n\n        uint commission = msg.value / 10;\n        uint sale = msg.value - commission;\n\n        seller.transfer(sale);\n        _owner.transfer(commission);\n\n        _estates[id]._ownerEstate = msg.sender;\n        _estates[id]._selling = false;\n    }\n\n    function getAllEstates() public view returns (estate[] memory){\n        return _estates;\n    }\n\n    function getEstateByAddress(address addr) public view returns (estate[] memory){\n        estate[] memory estatesList;\n        uint[] memory estateIds = _ownerEstate[addr];\n        for (uint i = 0; i < estateIds.length; i++) {\n            estatesList[i] = _idEstate[estateIds[i]];\n        }\n        return estatesList;\n    }\n\n    function getEstateById(uint id) public view returns (estate memory){\n        return _idEstate[id];\n    }\n}",
  "sourcePath": "/Users/ismaelmohamed/Documents/Courses/supinfo/5BLOC/estate_marketplace/src/contracts/Marketplace.sol",
  "compiler": {
    "name": "solc",
    "version": "0.5.16+commit.9c3226ce.Emscripten.clang"
  },
  "schemaVersion": "3.3.3",
  "updatedAt": "2021-03-02T19:21:59.946Z",
  "networkType": "ethereum",
  "devdoc": {
    "methods": {}
  },
  "userdoc": {
    "methods": {}
  }
}