{
  "contractName": "Marketplace",
  "abi": [
    {
      "inputs": [],
      "payable": false,
      "stateMutability": "nonpayable",
      "type": "constructor"
    },
    {
      "constant": false,
      "inputs": [
        {
          "internalType": "string",
          "name": "nom",
          "type": "string"
        },
        {
          "internalType": "string",
          "name": "adres",
          "type": "string"
        },
        {
          "internalType": "uint256",
          "name": "price",
          "type": "uint256"
        },
        {
          "internalType": "string[]",
          "name": "img",
          "type": "string[]"
        }
      ],
      "name": "createEstate",
      "outputs": [],
      "payable": false,
      "stateMutability": "nonpayable",
      "type": "function"
    },
    {
      "constant": false,
      "inputs": [
        {
          "internalType": "uint256",
          "name": "id",
          "type": "uint256"
        },
        {
          "internalType": "string",
          "name": "newName",
          "type": "string"
        },
        {
          "internalType": "string",
          "name": "newPostalAddress",
          "type": "string"
        },
        {
          "internalType": "uint256",
          "name": "newPrice",
          "type": "uint256"
        },
        {
          "internalType": "bool",
          "name": "newSelling",
          "type": "bool"
        },
        {
          "internalType": "string[]",
          "name": "newImages",
          "type": "string[]"
        }
      ],
      "name": "updateEstate",
      "outputs": [],
      "payable": false,
      "stateMutability": "nonpayable",
      "type": "function"
    },
    {
      "constant": false,
      "inputs": [
        {
          "internalType": "uint256",
          "name": "id",
          "type": "uint256"
        }
      ],
      "name": "buyEstate",
      "outputs": [],
      "payable": true,
      "stateMutability": "payable",
      "type": "function"
    },
    {
      "constant": true,
      "inputs": [],
      "name": "getAllEstates",
      "outputs": [
        {
          "components": [
            {
              "internalType": "uint256",
              "name": "_id",
              "type": "uint256"
            },
            {
              "internalType": "string",
              "name": "_name",
              "type": "string"
            },
            {
              "internalType": "string",
              "name": "_postalAddress",
              "type": "string"
            },
            {
              "internalType": "string[]",
              "name": "_images",
              "type": "string[]"
            },
            {
              "internalType": "uint256",
              "name": "_price",
              "type": "uint256"
            },
            {
              "internalType": "address payable",
              "name": "_ownerEstate",
              "type": "address"
            },
            {
              "internalType": "bool",
              "name": "_selling",
              "type": "bool"
            }
          ],
          "internalType": "struct Marketplace.estate[]",
          "name": "",
          "type": "tuple[]"
        }
      ],
      "payable": false,
      "stateMutability": "view",
      "type": "function"
    },
    {
      "constant": true,
      "inputs": [
        {
          "internalType": "address",
          "name": "addr",
          "type": "address"
        }
      ],
      "name": "getEstateByAddress",
      "outputs": [
        {
          "components": [
            {
              "internalType": "uint256",
              "name": "_id",
              "type": "uint256"
            },
            {
              "internalType": "string",
              "name": "_name",
              "type": "string"
            },
            {
              "internalType": "string",
              "name": "_postalAddress",
              "type": "string"
            },
            {
              "internalType": "string[]",
              "name": "_images",
              "type": "string[]"
            },
            {
              "internalType": "uint256",
              "name": "_price",
              "type": "uint256"
            },
            {
              "internalType": "address payable",
              "name": "_ownerEstate",
              "type": "address"
            },
            {
              "internalType": "bool",
              "name": "_selling",
              "type": "bool"
            }
          ],
          "internalType": "struct Marketplace.estate[]",
          "name": "",
          "type": "tuple[]"
        }
      ],
      "payable": false,
      "stateMutability": "view",
      "type": "function"
    },
    {
      "constant": true,
      "inputs": [
        {
          "internalType": "uint256",
          "name": "id",
          "type": "uint256"
        }
      ],
      "name": "getEstateById",
      "outputs": [
        {
          "components": [
            {
              "internalType": "uint256",
              "name": "_id",
              "type": "uint256"
            },
            {
              "internalType": "string",
              "name": "_name",
              "type": "string"
            },
            {
              "internalType": "string",
              "name": "_postalAddress",
              "type": "string"
            },
            {
              "internalType": "string[]",
              "name": "_images",
              "type": "string[]"
            },
            {
              "internalType": "uint256",
              "name": "_price",
              "type": "uint256"
            },
            {
              "internalType": "address payable",
              "name": "_ownerEstate",
              "type": "address"
            },
            {
              "internalType": "bool",
              "name": "_selling",
              "type": "bool"
            }
          ],
          "internalType": "struct Marketplace.estate",
          "name": "",
          "type": "tuple"
        }
      ],
      "payable": false,
      "stateMutability": "view",
      "type": "function"
    }
  ],
  "bytecode": "0x608060405234801561001057600080fd5b5033600160006101000a81548173ffffffffffffffffffffffffffffffffffffffff021916908373ffffffffffffffffffffffffffffffffffffffff160217905550612049806100616000396000f3fe6080604052600436106100555760003560e01c80630626f3f11461005a5780632f05e9e61461008557806343e02d7d146100c2578063558ee2a9146100eb5780635e5544151461012857806375c178b714610151575b600080fd5b34801561006657600080fd5b5061006f61016d565b60405161007c9190611d04565b60405180910390f35b34801561009157600080fd5b506100ac60048036036100a79190810190611744565b61047e565b6040516100b99190611d04565b60405180910390f35b3480156100ce57600080fd5b506100e960048036036100e49190810190611841565b610872565b005b3480156100f757600080fd5b50610112600480360361010d9190810190611818565b610a92565b60405161011f9190611da6565b60405180910390f35b34801561013457600080fd5b5061014f600480360361014a919081019061176d565b610d71565b005b61016b60048036036101669190810190611818565b611071565b005b60606002805480602002602001604051908101604052809291908181526020016000905b8282101561047557838290600052602060002090600602016040518060e001604052908160008201548152602001600182018054600181600116156101000203166002900480601f0160208091040260200160405190810160405280929190818152602001828054600181600116156101000203166002900480156102575780601f1061022c57610100808354040283529160200191610257565b820191906000526020600020905b81548152906001019060200180831161023a57829003601f168201915b50505050508152602001600282018054600181600116156101000203166002900480601f0160208091040260200160405190810160405280929190818152602001828054600181600116156101000203166002900480156102f95780601f106102ce576101008083540402835291602001916102f9565b820191906000526020600020905b8154815290600101906020018083116102dc57829003601f168201915b5050505050815260200160038201805480602002602001604051908101604052809291908181526020016000905b828210156103e3578382906000526020600020018054600181600116156101000203166002900480601f0160208091040260200160405190810160405280929190818152602001828054600181600116156101000203166002900480156103cf5780601f106103a4576101008083540402835291602001916103cf565b820191906000526020600020905b8154815290600101906020018083116103b257829003601f168201915b505050505081526020019060010190610327565b505050508152602001600482015481526020016005820160009054906101000a900473ffffffffffffffffffffffffffffffffffffffff1673ffffffffffffffffffffffffffffffffffffffff1673ffffffffffffffffffffffffffffffffffffffff1681526020016005820160149054906101000a900460ff16151515158152505081526020019060010190610191565b50505050905090565b606080600360008473ffffffffffffffffffffffffffffffffffffffff1673ffffffffffffffffffffffffffffffffffffffff16815260200190815260200160002080548060200260200160405190810160405280929190818152602001828054801561050a57602002820191906000526020600020905b8154815260200190600101908083116104f6575b505050505090506060815160405190808252806020026020018201604052801561054e57816020015b61053b6112e6565b8152602001906001900390816105335790505b50905060008090505b8251811015610867576004600084838151811061057057fe5b602002602001015181526020019081526020016000206040518060e001604052908160008201548152602001600182018054600181600116156101000203166002900480601f0160208091040260200160405190810160405280929190818152602001828054600181600116156101000203166002900480156106345780601f1061060957610100808354040283529160200191610634565b820191906000526020600020905b81548152906001019060200180831161061757829003601f168201915b50505050508152602001600282018054600181600116156101000203166002900480601f0160208091040260200160405190810160405280929190818152602001828054600181600116156101000203166002900480156106d65780601f106106ab576101008083540402835291602001916106d6565b820191906000526020600020905b8154815290600101906020018083116106b957829003601f168201915b5050505050815260200160038201805480602002602001604051908101604052809291908181526020016000905b828210156107c0578382906000526020600020018054600181600116156101000203166002900480601f0160208091040260200160405190810160405280929190818152602001828054600181600116156101000203166002900480156107ac5780601f10610781576101008083540402835291602001916107ac565b820191906000526020600020905b81548152906001019060200180831161078f57829003601f168201915b505050505081526020019060010190610704565b505050508152602001600482015481526020016005820160009054906101000a900473ffffffffffffffffffffffffffffffffffffffff1673ffffffffffffffffffffffffffffffffffffffff1673ffffffffffffffffffffffffffffffffffffffff1681526020016005820160149054906101000a900460ff16151515158152505082828151811061084f57fe5b60200260200101819052508080600101915050610557565b508092505050919050565b3373ffffffffffffffffffffffffffffffffffffffff166002878154811061089657fe5b906000526020600020906006020160050160009054906101000a900473ffffffffffffffffffffffffffffffffffffffff1673ffffffffffffffffffffffffffffffffffffffff161461091e576040517f08c379a000000000000000000000000000000000000000000000000000000000815260040161091590611d66565b60405180910390fd5b600a8311610961576040517f08c379a000000000000000000000000000000000000000000000000000000000815260040161095890611d46565b60405180910390fd5b60016002878154811061097057fe5b906000526020600020906006020160050160146101000a81548160ff02191690831515021790555082600287815481106109a657fe5b90600052602060002090600602016004018190555083600287815481106109c957fe5b906000526020600020906006020160020190805190602001906109ed92919061133b565b5084600287815481106109fc57fe5b90600052602060002090600602016001019080519060200190610a2092919061133b565b508160028781548110610a2f57fe5b906000526020600020906006020160050160146101000a81548160ff0219169083151502179055508060028781548110610a6557fe5b90600052602060002090600602016003019080519060200190610a899291906113bb565b50505050505050565b610a9a61141b565b600460008381526020019081526020016000206040518060e001604052908160008201548152602001600182018054600181600116156101000203166002900480601f016020809104026020016040519081016040528092919081815260200182805460018160011615610100020316600290048015610b5b5780601f10610b3057610100808354040283529160200191610b5b565b820191906000526020600020905b815481529060010190602001808311610b3e57829003601f168201915b50505050508152602001600282018054600181600116156101000203166002900480601f016020809104026020016040519081016040528092919081815260200182805460018160011615610100020316600290048015610bfd5780601f10610bd257610100808354040283529160200191610bfd565b820191906000526020600020905b815481529060010190602001808311610be057829003601f168201915b5050505050815260200160038201805480602002602001604051908101604052809291908181526020016000905b82821015610ce7578382906000526020600020018054600181600116156101000203166002900480601f016020809104026020016040519081016040528092919081815260200182805460018160011615610100020316600290048015610cd35780601f10610ca857610100808354040283529160200191610cd3565b820191906000526020600020905b815481529060010190602001808311610cb657829003601f168201915b505050505081526020019060010190610c2b565b505050508152602001600482015481526020016005820160009054906101000a900473ffffffffffffffffffffffffffffffffffffffff1673ffffffffffffffffffffffffffffffffffffffff1673ffffffffffffffffffffffffffffffffffffffff1681526020016005820160149054906101000a900460ff1615151515815250509050919050565b600a8211610db4576040517f08c379a0000000000000000000000000000000000000000000000000000000008152600401610dab90611d46565b60405180910390fd5b60006002805490509050610dc661141b565b6040518060e001604052808381526020018781526020018681526020018481526020018581526020013373ffffffffffffffffffffffffffffffffffffffff16815260200160001515815250905060028190806001815401808255809150509060018203906000526020600020906006020160009091929091909150600082015181600001556020820151816001019080519060200190610e68929190611470565b506040820151816002019080519060200190610e85929190611470565b506060820151816003019080519060200190610ea29291906114f0565b506080820151816004015560a08201518160050160006101000a81548173ffffffffffffffffffffffffffffffffffffffff021916908373ffffffffffffffffffffffffffffffffffffffff16021790555060c08201518160050160146101000a81548160ff0219169083151502179055505050508060046000848152602001908152602001600020600082015181600001556020820151816001019080519060200190610f51929190611470565b506040820151816002019080519060200190610f6e929190611470565b506060820151816003019080519060200190610f8b9291906114f0565b506080820151816004015560a08201518160050160006101000a81548173ffffffffffffffffffffffffffffffffffffffff021916908373ffffffffffffffffffffffffffffffffffffffff16021790555060c08201518160050160146101000a81548160ff021916908315150217905550905050600360003373ffffffffffffffffffffffffffffffffffffffff1673ffffffffffffffffffffffffffffffffffffffff168152602001908152602001600020829080600181540180825580915050906001820390600052602060002001600090919290919091505550505050505050565b6002818154811061107e57fe5b906000526020600020906006020160050160149054906101000a900460ff166110dc576040517f08c379a00000000000000000000000000000000000000000000000000000000081526004016110d390611d26565b60405180910390fd5b6000600282815481106110eb57fe5b906000526020600020906006020160050160009054906101000a900473ffffffffffffffffffffffffffffffffffffffff16905060006002838154811061112e57fe5b906000526020600020906006020160040154905080341015611185576040517f08c379a000000000000000000000000000000000000000000000000000000000815260040161117c90611d86565b60405180910390fd5b6000600a348161119157fe5b049050600081340390508373ffffffffffffffffffffffffffffffffffffffff166108fc829081150290604051600060405180830381858888f193505050501580156111e1573d6000803e3d6000fd5b50600160009054906101000a900473ffffffffffffffffffffffffffffffffffffffff1673ffffffffffffffffffffffffffffffffffffffff166108fc839081150290604051600060405180830381858888f1935050505015801561124a573d6000803e3d6000fd5b50336002868154811061125957fe5b906000526020600020906006020160050160006101000a81548173ffffffffffffffffffffffffffffffffffffffff021916908373ffffffffffffffffffffffffffffffffffffffff1602179055506000600286815481106112b757fe5b906000526020600020906006020160050160146101000a81548160ff0219169083151502179055505050505050565b6040518060e001604052806000815260200160608152602001606081526020016060815260200160008152602001600073ffffffffffffffffffffffffffffffffffffffff1681526020016000151581525090565b828054600181600116156101000203166002900490600052602060002090601f016020900481019282601f1061137c57805160ff19168380011785556113aa565b828001600101855582156113aa579182015b828111156113a957825182559160200191906001019061138e565b5b5090506113b79190611550565b5090565b82805482825590600052602060002090810192821561140a579160200282015b828111156114095782518290805190602001906113f9929190611470565b50916020019190600101906113db565b5b5090506114179190611575565b5090565b6040518060e001604052806000815260200160608152602001606081526020016060815260200160008152602001600073ffffffffffffffffffffffffffffffffffffffff1681526020016000151581525090565b828054600181600116156101000203166002900490600052602060002090601f016020900481019282601f106114b157805160ff19168380011785556114df565b828001600101855582156114df579182015b828111156114de5782518255916020019190600101906114c3565b5b5090506114ec9190611550565b5090565b82805482825590600052602060002090810192821561153f579160200282015b8281111561153e57825182908051906020019061152e929190611470565b5091602001919060010190611510565b5b50905061154c9190611575565b5090565b61157291905b8082111561156e576000816000905550600101611556565b5090565b90565b61159e91905b8082111561159a576000818161159191906115a1565b5060010161157b565b5090565b90565b50805460018160011615610100020316600290046000825580601f106115c757506115e6565b601f0160209004906000526020600020908101906115e59190611550565b5b50565b6000813590506115f881611fc1565b92915050565b600082601f83011261160f57600080fd5b813561162261161d82611df5565b611dc8565b9150818183526020840193506020810190508360005b83811015611668578135860161164e8882611687565b845260208401935060208301925050600181019050611638565b5050505092915050565b60008135905061168181611fd8565b92915050565b600082601f83011261169857600080fd5b81356116ab6116a682611e1d565b611dc8565b915080825260208301602083018583830111156116c757600080fd5b6116d2838284611f6e565b50505092915050565b600082601f8301126116ec57600080fd5b81356116ff6116fa82611e49565b611dc8565b9150808252602083016020830185838301111561171b57600080fd5b611726838284611f6e565b50505092915050565b60008135905061173e81611fef565b92915050565b60006020828403121561175657600080fd5b6000611764848285016115e9565b91505092915050565b6000806000806080858703121561178357600080fd5b600085013567ffffffffffffffff81111561179d57600080fd5b6117a9878288016116db565b945050602085013567ffffffffffffffff8111156117c657600080fd5b6117d2878288016116db565b93505060406117e38782880161172f565b925050606085013567ffffffffffffffff81111561180057600080fd5b61180c878288016115fe565b91505092959194509250565b60006020828403121561182a57600080fd5b60006118388482850161172f565b91505092915050565b60008060008060008060c0878903121561185a57600080fd5b600061186889828a0161172f565b965050602087013567ffffffffffffffff81111561188557600080fd5b61189189828a016116db565b955050604087013567ffffffffffffffff8111156118ae57600080fd5b6118ba89828a016116db565b94505060606118cb89828a0161172f565b93505060806118dc89828a01611672565b92505060a087013567ffffffffffffffff8111156118f957600080fd5b61190589828a016115fe565b9150509295509295509295565b600061191e8383611a42565b905092915050565b60006119328383611c4b565b905092915050565b61194381611f26565b82525050565b600061195482611e95565b61195e8185611ed0565b93508360208202850161197085611e75565b8060005b858110156119ac578484038952815161198d8582611912565b945061199883611eb6565b925060208a01995050600181019050611974565b50829750879550505050505092915050565b60006119c982611ea0565b6119d38185611ee1565b9350836020820285016119e585611e85565b8060005b85811015611a215784840389528151611a028582611926565b9450611a0d83611ec3565b925060208a019950506001810190506119e9565b50829750879550505050505092915050565b611a3c81611f38565b82525050565b6000611a4d82611eab565b611a578185611ef2565b9350611a67818560208601611f7d565b611a7081611fb0565b840191505092915050565b6000611a88601283611f03565b91507f6e276573742070617320656e2076656e746500000000000000000000000000006000830152602082019050919050565b6000611ac8602083611f03565b91507f6c65207072697820646f697420657472652073757065726965757220612031306000830152602082019050919050565b6000611b08602183611f03565b91507f7475206e27657374207061732070726f7072696574616972652064752062696560008301527f6e000000000000000000000000000000000000000000000000000000000000006020830152604082019050919050565b6000611b6e601283611f03565b91507f4d616e717565206465206c27617267656e7400000000000000000000000000006000830152602082019050919050565b600060e083016000830151611bb96000860182611cf5565b5060208301518482036020860152611bd18282611a42565b91505060408301518482036040860152611beb8282611a42565b91505060608301518482036060860152611c058282611949565b9150506080830151611c1a6080860182611cf5565b5060a0830151611c2d60a086018261193a565b5060c0830151611c4060c0860182611a33565b508091505092915050565b600060e083016000830151611c636000860182611cf5565b5060208301518482036020860152611c7b8282611a42565b91505060408301518482036040860152611c958282611a42565b91505060608301518482036060860152611caf8282611949565b9150506080830151611cc46080860182611cf5565b5060a0830151611cd760a086018261193a565b5060c0830151611cea60c0860182611a33565b508091505092915050565b611cfe81611f64565b82525050565b60006020820190508181036000830152611d1e81846119be565b905092915050565b60006020820190508181036000830152611d3f81611a7b565b9050919050565b60006020820190508181036000830152611d5f81611abb565b9050919050565b60006020820190508181036000830152611d7f81611afb565b9050919050565b60006020820190508181036000830152611d9f81611b61565b9050919050565b60006020820190508181036000830152611dc08184611ba1565b905092915050565b6000604051905081810181811067ffffffffffffffff82111715611deb57600080fd5b8060405250919050565b600067ffffffffffffffff821115611e0c57600080fd5b602082029050602081019050919050565b600067ffffffffffffffff821115611e3457600080fd5b601f19601f8301169050602081019050919050565b600067ffffffffffffffff821115611e6057600080fd5b601f19601f8301169050602081019050919050565b6000819050602082019050919050565b6000819050602082019050919050565b600081519050919050565b600081519050919050565b600081519050919050565b6000602082019050919050565b6000602082019050919050565b600082825260208201905092915050565b600082825260208201905092915050565b600082825260208201905092915050565b600082825260208201905092915050565b6000611f1f82611f44565b9050919050565b6000611f3182611f44565b9050919050565b60008115159050919050565b600073ffffffffffffffffffffffffffffffffffffffff82169050919050565b6000819050919050565b82818337600083830152505050565b60005b83811015611f9b578082015181840152602081019050611f80565b83811115611faa576000848401525b50505050565b6000601f19601f8301169050919050565b611fca81611f14565b8114611fd557600080fd5b50565b611fe181611f38565b8114611fec57600080fd5b50565b611ff881611f64565b811461200357600080fd5b5056fea365627a7a72315820f7c1d6cc58e00552cfd4a9f031e82785b949a8b2fc785cd14344437e8277d84d6c6578706572696d656e74616cf564736f6c63430005100040",
  "source": "// SPDX-License-Identifier: MIT\npragma solidity >=0.5.0 <0.8.0;\npragma experimental ABIEncoderV2;\n\ncontract Marketplace {\n    struct estate {\n        uint _id;\n        string _name;\n        string _postalAddress;\n        string[] _images;\n        uint _price;\n        address payable _ownerEstate;\n        bool _selling;\n    }\n\n    string[] _sales;\n    address payable _owner;\n    estate[] _estates;\n\n    mapping(address => uint[]) _ownerEstate;\n    mapping(uint => estate) _idEstate;\n\n    constructor() public {\n        _owner = msg.sender;\n    }\n\n\n    function createEstate(string memory nom, string memory adres, uint price, string[] memory img) public {\n        require(price > 10, \"le prix doit etre superieur a 10\");\n        uint id = _estates.length;\n        estate memory create = estate(id, nom, adres, img, price, msg.sender, false);\n        _estates.push(create);\n        _idEstate[id] = create;\n        _ownerEstate[msg.sender].push(id);\n    }\n\n\n    function updateEstate(uint id, string memory newName, string memory newPostalAddress, uint newPrice, bool newSelling, string[] memory newImages) public{\n        require(_estates[id]._ownerEstate == msg.sender, \"tu n'est pas proprietaire du bien\");\n        require( newPrice > 10, \"le prix doit etre superieur a 10\" );\n        _estates[id]._selling = true;\n        _estates[id]._price = newPrice;\n        _estates[id]._postalAddress = newPostalAddress;\n        _estates[id]._name = newName;\n        _estates[id]._selling = newSelling;\n        _estates[id]._images = newImages;\n    }\n\n\n    function buyEstate(uint id) public payable {\n        require(_estates[id]._selling, \"n'est pas en vente\");\n\n        address payable seller = _estates[id]._ownerEstate;\n\n        uint price = _estates[id]._price;\n\n\n        require(msg.value >= price, 'Manque de l\\'argent');\n\n        uint commission = msg.value / 10;\n        uint sale = msg.value - commission;\n\n        seller.transfer(sale);\n        _owner.transfer(commission);\n\n        _estates[id]._ownerEstate = msg.sender;\n        _estates[id]._selling = false;\n    }\n\n    function getAllEstates() public view returns (estate[] memory){\n        return _estates;\n    }\n\n    function getEstateByAddress(address addr) public view returns (estate[] memory){\n        uint[] memory estateIds = _ownerEstate[addr];\n        estate[] memory estatesList = new estate[](estateIds.length);\n        for (uint i = 0; i < estateIds.length; i++) {\n            estatesList[i] = _idEstate[estateIds[i]];\n        }\n        return estatesList;\n    }\n\n    function getEstateById(uint id) public view returns (estate memory){\n        return _idEstate[id];\n    }\n}",
  "sourcePath": "/Users/ismaelmohamed/Documents/Courses/supinfo/5BLOC/estate_marketplace/src/contracts/Marketplace.sol",
  "compiler": {
    "name": "solc",
    "version": "0.5.16+commit.9c3226ce.Emscripten.clang"
  },
  "schemaVersion": "3.3.3",
  "updatedAt": "2021-03-02T21:24:48.780Z",
  "networkType": "ethereum",
  "devdoc": {
    "methods": {}
  },
  "userdoc": {
    "methods": {}
  }
}