{
  "contractName": "Marketplace",
  "abi": [
    {
      "inputs": [],
      "payable": false,
      "stateMutability": "nonpayable",
      "type": "constructor"
    },
    {
      "constant": false,
      "inputs": [
        {
          "name": "nom",
          "type": "string"
        },
        {
          "name": "adres",
          "type": "string"
        },
        {
          "name": "price",
          "type": "uint256"
        },
        {
          "name": "img",
          "type": "string[]"
        }
      ],
      "name": "createEstate",
      "outputs": [],
      "payable": false,
      "stateMutability": "nonpayable",
      "type": "function"
    },
    {
      "constant": false,
      "inputs": [
        {
          "name": "id",
          "type": "uint256"
        }
      ],
      "name": "setEstateSale",
      "outputs": [],
      "payable": false,
      "stateMutability": "nonpayable",
      "type": "function"
    },
    {
      "constant": false,
      "inputs": [
        {
          "name": "id",
          "type": "uint256"
        },
        {
          "name": "newPrice",
          "type": "uint256"
        }
      ],
      "name": "setPrice",
      "outputs": [],
      "payable": false,
      "stateMutability": "nonpayable",
      "type": "function"
    },
    {
      "constant": false,
      "inputs": [
        {
          "name": "id",
          "type": "uint256"
        },
        {
          "name": "newPostalAddress",
          "type": "string"
        }
      ],
      "name": "setPostalAddress",
      "outputs": [],
      "payable": false,
      "stateMutability": "nonpayable",
      "type": "function"
    },
    {
      "constant": false,
      "inputs": [
        {
          "name": "id",
          "type": "uint256"
        },
        {
          "name": "newName",
          "type": "string"
        }
      ],
      "name": "setName",
      "outputs": [],
      "payable": false,
      "stateMutability": "nonpayable",
      "type": "function"
    },
    {
      "constant": false,
      "inputs": [
        {
          "name": "id",
          "type": "uint256"
        }
      ],
      "name": "cancelEstateSale",
      "outputs": [],
      "payable": false,
      "stateMutability": "nonpayable",
      "type": "function"
    },
    {
      "constant": false,
      "inputs": [
        {
          "name": "id",
          "type": "uint256"
        }
      ],
      "name": "BuyEstate",
      "outputs": [],
      "payable": true,
      "stateMutability": "payable",
      "type": "function"
    },
    {
      "constant": true,
      "inputs": [],
      "name": "getAllEstates",
      "outputs": [
        {
          "components": [
            {
              "name": "_name",
              "type": "string"
            },
            {
              "name": "_postalAddress",
              "type": "string"
            },
            {
              "name": "_images",
              "type": "string[]"
            },
            {
              "name": "_price",
              "type": "uint256"
            },
            {
              "name": "_ownerEstate",
              "type": "address"
            },
            {
              "name": "_selling",
              "type": "bool"
            }
          ],
          "name": "",
          "type": "tuple[]"
        }
      ],
      "payable": false,
      "stateMutability": "view",
      "type": "function"
    },
    {
      "constant": true,
      "inputs": [
        {
          "name": "addr",
          "type": "address"
        }
      ],
      "name": "getEstateByAddress",
      "outputs": [
        {
          "components": [
            {
              "name": "_name",
              "type": "string"
            },
            {
              "name": "_postalAddress",
              "type": "string"
            },
            {
              "name": "_images",
              "type": "string[]"
            },
            {
              "name": "_price",
              "type": "uint256"
            },
            {
              "name": "_ownerEstate",
              "type": "address"
            },
            {
              "name": "_selling",
              "type": "bool"
            }
          ],
          "name": "",
          "type": "tuple[]"
        }
      ],
      "payable": false,
      "stateMutability": "view",
      "type": "function"
    },
    {
      "constant": true,
      "inputs": [
        {
          "name": "id",
          "type": "uint256"
        }
      ],
      "name": "getEstateById",
      "outputs": [
        {
          "components": [
            {
              "name": "_name",
              "type": "string"
            },
            {
              "name": "_postalAddress",
              "type": "string"
            },
            {
              "name": "_images",
              "type": "string[]"
            },
            {
              "name": "_price",
              "type": "uint256"
            },
            {
              "name": "_ownerEstate",
              "type": "address"
            },
            {
              "name": "_selling",
              "type": "bool"
            }
          ],
          "name": "",
          "type": "tuple"
        }
      ],
      "payable": false,
      "stateMutability": "view",
      "type": "function"
    }
  ],
  "bytecode": "0x608060405234801561001057600080fd5b5033600160006101000a81548173ffffffffffffffffffffffffffffffffffffffff021916908373ffffffffffffffffffffffffffffffffffffffff16021790555061212c806100616000396000f3fe6080604052600436106100a4576000357c0100000000000000000000000000000000000000000000000000000000900463ffffffff1680630626f3f1146100a95780632f05e9e6146100d45780633cbab75614610111578063558ee2a91461013a5780635e554415146101775780638d43e8f0146101a0578063b6d81de6146101c9578063ce2a4015146101f2578063f7d975771461020e578063fe55932a14610237575b600080fd5b3480156100b557600080fd5b506100be610260565b6040516100cb9190611e75565b60405180910390f35b3480156100e057600080fd5b506100fb60048036036100f69190810190611979565b610568565b6040516101089190611e75565b60405180910390f35b34801561011d57600080fd5b5061013860048036036101339190810190611a76565b61091d565b005b34801561014657600080fd5b50610161600480360361015c9190810190611a4d565b610a06565b60405161016e9190611f17565b60405180910390f35b34801561018357600080fd5b5061019e600480360361019991908101906119a2565b610cdc565b005b3480156101ac57600080fd5b506101c760048036036101c29190810190611a4d565b610fc8565b005b3480156101d557600080fd5b506101f060048036036101eb9190810190611a4d565b6110b4565b005b61020c60048036036102079190810190611a4d565b6111a0565b005b34801561021a57600080fd5b5061023560048036036102309190810190611aca565b611425565b005b34801561024357600080fd5b5061025e60048036036102599190810190611a76565b6114fe565b005b60606002805480602002602001604051908101604052809291908181526020016000905b8282101561055f578382906000526020600020906005020160c06040519081016040529081600082018054600181600116156101000203166002900480601f0160208091040260200160405190810160405280929190818152602001828054600181600116156101000203166002900480156103415780601f1061031657610100808354040283529160200191610341565b820191906000526020600020905b81548152906001019060200180831161032457829003601f168201915b50505050508152602001600182018054600181600116156101000203166002900480601f0160208091040260200160405190810160405280929190818152602001828054600181600116156101000203166002900480156103e35780601f106103b8576101008083540402835291602001916103e3565b820191906000526020600020905b8154815290600101906020018083116103c657829003601f168201915b5050505050815260200160028201805480602002602001604051908101604052809291908181526020016000905b828210156104cd578382906000526020600020018054600181600116156101000203166002900480601f0160208091040260200160405190810160405280929190818152602001828054600181600116156101000203166002900480156104b95780601f1061048e576101008083540402835291602001916104b9565b820191906000526020600020905b81548152906001019060200180831161049c57829003601f168201915b505050505081526020019060010190610411565b505050508152602001600382015481526020016004820160009054906101000a900473ffffffffffffffffffffffffffffffffffffffff1673ffffffffffffffffffffffffffffffffffffffff1673ffffffffffffffffffffffffffffffffffffffff1681526020016004820160149054906101000a900460ff16151515158152505081526020019060010190610284565b50505050905090565b6060806060600360008573ffffffffffffffffffffffffffffffffffffffff1673ffffffffffffffffffffffffffffffffffffffff1681526020019081526020016000208054806020026020016040519081016040528092919081815260200182805480156105f657602002820191906000526020600020905b8154815260200190600101908083116105e2575b5050505050905060008090505b81518110156109125760046000838381518110151561061e57fe5b90602001906020020151815260200190815260200160002060c06040519081016040529081600082018054600181600116156101000203166002900480601f0160208091040260200160405190810160405280929190818152602001828054600181600116156101000203166002900480156106db5780601f106106b0576101008083540402835291602001916106db565b820191906000526020600020905b8154815290600101906020018083116106be57829003601f168201915b50505050508152602001600182018054600181600116156101000203166002900480601f01602080910402602001604051908101604052809291908181526020018280546001816001161561010002031660029004801561077d5780601f106107525761010080835404028352916020019161077d565b820191906000526020600020905b81548152906001019060200180831161076057829003601f168201915b5050505050815260200160028201805480602002602001604051908101604052809291908181526020016000905b82821015610867578382906000526020600020018054600181600116156101000203166002900480601f0160208091040260200160405190810160405280929190818152602001828054600181600116156101000203166002900480156108535780601f1061082857610100808354040283529160200191610853565b820191906000526020600020905b81548152906001019060200180831161083657829003601f168201915b5050505050815260200190600101906107ab565b505050508152602001600382015481526020016004820160009054906101000a900473ffffffffffffffffffffffffffffffffffffffff1673ffffffffffffffffffffffffffffffffffffffff1673ffffffffffffffffffffffffffffffffffffffff1681526020016004820160149054906101000a900460ff16151515158152505083828151811015156108f857fe5b906020019060200201819052508080600101915050610603565b508192505050919050565b3373ffffffffffffffffffffffffffffffffffffffff1660028381548110151561094357fe5b906000526020600020906005020160040160009054906101000a900473ffffffffffffffffffffffffffffffffffffffff1673ffffffffffffffffffffffffffffffffffffffff161415156109cd576040517f08c379a00000000000000000000000000000000000000000000000000000000081526004016109c490611ef7565b60405180910390fd5b806002838154811015156109dd57fe5b90600052602060002090600502016001019080519060200190610a019291906115e7565b505050565b610a0e611667565b6004600083815260200190815260200160002060c06040519081016040529081600082018054600181600116156101000203166002900480601f016020809104026020016040519081016040528092919081815260200182805460018160011615610100020316600290048015610ac65780601f10610a9b57610100808354040283529160200191610ac6565b820191906000526020600020905b815481529060010190602001808311610aa957829003601f168201915b50505050508152602001600182018054600181600116156101000203166002900480601f016020809104026020016040519081016040528092919081815260200182805460018160011615610100020316600290048015610b685780601f10610b3d57610100808354040283529160200191610b68565b820191906000526020600020905b815481529060010190602001808311610b4b57829003601f168201915b5050505050815260200160028201805480602002602001604051908101604052809291908181526020016000905b82821015610c52578382906000526020600020018054600181600116156101000203166002900480601f016020809104026020016040519081016040528092919081815260200182805460018160011615610100020316600290048015610c3e5780601f10610c1357610100808354040283529160200191610c3e565b820191906000526020600020905b815481529060010190602001808311610c2157829003601f168201915b505050505081526020019060010190610b96565b505050508152602001600382015481526020016004820160009054906101000a900473ffffffffffffffffffffffffffffffffffffffff1673ffffffffffffffffffffffffffffffffffffffff1673ffffffffffffffffffffffffffffffffffffffff1681526020016004820160149054906101000a900460ff1615151515815250509050919050565b600a82111515610d21576040517f08c379a0000000000000000000000000000000000000000000000000000000008152600401610d1890611eb7565b60405180910390fd5b610d29611667565b60c0604051908101604052808681526020018581526020018381526020018481526020013373ffffffffffffffffffffffffffffffffffffffff168152602001600015158152509050600281908060018154018082558091505090600182039060005260206000209060050201600090919290919091506000820151816000019080519060200190610dbc9291906116b6565b506020820151816001019080519060200190610dd99291906116b6565b506040820151816002019080519060200190610df6929190611736565b506060820151816003015560808201518160040160006101000a81548173ffffffffffffffffffffffffffffffffffffffff021916908373ffffffffffffffffffffffffffffffffffffffff16021790555060a08201518160040160146101000a81548160ff0219169083151502179055505050506000600160028054905003905081600460008381526020019081526020016000206000820151816000019080519060200190610ea89291906116b6565b506020820151816001019080519060200190610ec59291906116b6565b506040820151816002019080519060200190610ee2929190611736565b506060820151816003015560808201518160040160006101000a81548173ffffffffffffffffffffffffffffffffffffffff021916908373ffffffffffffffffffffffffffffffffffffffff16021790555060a08201518160040160146101000a81548160ff021916908315150217905550905050600360003373ffffffffffffffffffffffffffffffffffffffff1673ffffffffffffffffffffffffffffffffffffffff168152602001908152602001600020819080600181540180825580915050906001820390600052602060002001600090919290919091505550505050505050565b3373ffffffffffffffffffffffffffffffffffffffff16600282815481101515610fee57fe5b906000526020600020906005020160040160009054906101000a900473ffffffffffffffffffffffffffffffffffffffff1673ffffffffffffffffffffffffffffffffffffffff16141515611078576040517f08c379a000000000000000000000000000000000000000000000000000000000815260040161106f90611ef7565b60405180910390fd5b600160028281548110151561108957fe5b906000526020600020906005020160040160146101000a81548160ff02191690831515021790555050565b3373ffffffffffffffffffffffffffffffffffffffff166002828154811015156110da57fe5b906000526020600020906005020160040160009054906101000a900473ffffffffffffffffffffffffffffffffffffffff1673ffffffffffffffffffffffffffffffffffffffff16141515611164576040517f08c379a000000000000000000000000000000000000000000000000000000000815260040161115b90611ef7565b60405180910390fd5b600060028281548110151561117557fe5b906000526020600020906005020160040160146101000a81548160ff02191690831515021790555050565b6002818154811015156111af57fe5b906000526020600020906005020160040160149054906101000a900460ff16151561120f576040517f08c379a000000000000000000000000000000000000000000000000000000000815260040161120690611e97565b60405180910390fd5b600060028281548110151561122057fe5b906000526020600020906005020160040160009054906101000a900473ffffffffffffffffffffffffffffffffffffffff169050600060028381548110151561126557fe5b90600052602060002090600502016003015490508034101515156112be576040517f08c379a00000000000000000000000000000000000000000000000000000000081526004016112b590611ed7565b60405180910390fd5b6000600a348115156112cc57fe5b049050600081340390508373ffffffffffffffffffffffffffffffffffffffff166108fc829081150290604051600060405180830381858888f1935050505015801561131c573d6000803e3d6000fd5b50600160009054906101000a900473ffffffffffffffffffffffffffffffffffffffff1673ffffffffffffffffffffffffffffffffffffffff166108fc839081150290604051600060405180830381858888f19350505050158015611385573d6000803e3d6000fd5b503360028681548110151561139657fe5b906000526020600020906005020160040160006101000a81548173ffffffffffffffffffffffffffffffffffffffff021916908373ffffffffffffffffffffffffffffffffffffffff16021790555060006002868154811015156113f657fe5b906000526020600020906005020160040160146101000a81548160ff0219169083151502179055505050505050565b3373ffffffffffffffffffffffffffffffffffffffff1660028381548110151561144b57fe5b906000526020600020906005020160040160009054906101000a900473ffffffffffffffffffffffffffffffffffffffff1673ffffffffffffffffffffffffffffffffffffffff161415156114d5576040517f08c379a00000000000000000000000000000000000000000000000000000000081526004016114cc90611ef7565b60405180910390fd5b806002838154811015156114e557fe5b9060005260206000209060050201600301819055505050565b3373ffffffffffffffffffffffffffffffffffffffff1660028381548110151561152457fe5b906000526020600020906005020160040160009054906101000a900473ffffffffffffffffffffffffffffffffffffffff1673ffffffffffffffffffffffffffffffffffffffff161415156115ae576040517f08c379a00000000000000000000000000000000000000000000000000000000081526004016115a590611ef7565b60405180910390fd5b806002838154811015156115be57fe5b906000526020600020906005020160000190805190602001906115e29291906115e7565b505050565b828054600181600116156101000203166002900490600052602060002090601f016020900481019282601f1061162857805160ff1916838001178555611656565b82800160010185558215611656579182015b8281111561165557825182559160200191906001019061163a565b5b5090506116639190611796565b5090565b60c06040519081016040528060608152602001606081526020016060815260200160008152602001600073ffffffffffffffffffffffffffffffffffffffff1681526020016000151581525090565b828054600181600116156101000203166002900490600052602060002090601f016020900481019282601f106116f757805160ff1916838001178555611725565b82800160010185558215611725579182015b82811115611724578251825591602001919060010190611709565b5b5090506117329190611796565b5090565b828054828255906000526020600020908101928215611785579160200282015b828111156117845782518290805190602001906117749291906116b6565b5091602001919060010190611756565b5b50905061179291906117bb565b5090565b6117b891905b808211156117b457600081600090555060010161179c565b5090565b90565b6117e491905b808211156117e057600081816117d791906117e7565b506001016117c1565b5090565b90565b50805460018160011615610100020316600290046000825580601f1061180d575061182c565b601f01602090049060005260206000209081019061182b9190611796565b5b50565b600061183b8235612083565b905092915050565b600082601f830112151561185657600080fd5b813561186961186482611f66565b611f39565b9150818183526020840193506020810190508360005b838110156118af578135860161189588826118b9565b84526020840193506020830192505060018101905061187f565b5050505092915050565b600082601f83011215156118cc57600080fd5b81356118df6118da82611f8e565b611f39565b915080825260208301602083018583830111156118fb57600080fd5b61190683828461209f565b50505092915050565b600082601f830112151561192257600080fd5b813561193561193082611fba565b611f39565b9150808252602083016020830185838301111561195157600080fd5b61195c83828461209f565b50505092915050565b60006119718235612095565b905092915050565b60006020828403121561198b57600080fd5b60006119998482850161182f565b91505092915050565b600080600080608085870312156119b857600080fd5b600085013567ffffffffffffffff8111156119d257600080fd5b6119de8782880161190f565b945050602085013567ffffffffffffffff8111156119fb57600080fd5b611a078782880161190f565b9350506040611a1887828801611965565b925050606085013567ffffffffffffffff811115611a3557600080fd5b611a4187828801611843565b91505092959194509250565b600060208284031215611a5f57600080fd5b6000611a6d84828501611965565b91505092915050565b60008060408385031215611a8957600080fd5b6000611a9785828601611965565b925050602083013567ffffffffffffffff811115611ab457600080fd5b611ac08582860161190f565b9150509250929050565b60008060408385031215611add57600080fd5b6000611aeb85828601611965565b9250506020611afc85828601611965565b9150509250929050565b611b0f8161203b565b82525050565b6000611b2082612000565b80845260208401935083602082028501611b3985611fe6565b60005b84811015611b72578383038852611b54838351611c00565b9250611b5f82612021565b9150602088019750600181019050611b3c565b508196508694505050505092915050565b6000611b8e8261200b565b80845260208401935083602082028501611ba785611ff3565b60005b84811015611be0578383038852611bc2838351611dcf565b9250611bcd8261202e565b9150602088019750600181019050611baa565b508196508694505050505092915050565b611bfa8161204d565b82525050565b6000611c0b82612016565b808452611c1f8160208601602086016120ae565b611c28816120e1565b602085010191505092915050565b6000601282527f6e276573742070617320656e2076656e746500000000000000000000000000006020830152604082019050919050565b6000602082527f6c65207072697820646f697420657472652073757065726965757220612031306020830152604082019050919050565b6000601282527f4d616e717565206465206c61207468756e6500000000000000000000000000006020830152604082019050919050565b6000602182527f7475206e27657374207061732070726f7072696574616972652064752062696560208301527f6e000000000000000000000000000000000000000000000000000000000000006040830152606082019050919050565b600060c0830160008301518482036000860152611d558282611c00565b91505060208301518482036020860152611d6f8282611c00565b91505060408301518482036040860152611d898282611b15565b9150506060830151611d9e6060860182611e66565b506080830151611db16080860182611b06565b5060a0830151611dc460a0860182611bf1565b508091505092915050565b600060c0830160008301518482036000860152611dec8282611c00565b91505060208301518482036020860152611e068282611c00565b91505060408301518482036040860152611e208282611b15565b9150506060830151611e356060860182611e66565b506080830151611e486080860182611b06565b5060a0830151611e5b60a0860182611bf1565b508091505092915050565b611e6f81612079565b82525050565b60006020820190508181036000830152611e8f8184611b83565b905092915050565b60006020820190508181036000830152611eb081611c36565b9050919050565b60006020820190508181036000830152611ed081611c6d565b9050919050565b60006020820190508181036000830152611ef081611ca4565b9050919050565b60006020820190508181036000830152611f1081611cdb565b9050919050565b60006020820190508181036000830152611f318184611d38565b905092915050565b6000604051905081810181811067ffffffffffffffff82111715611f5c57600080fd5b8060405250919050565b600067ffffffffffffffff821115611f7d57600080fd5b602082029050602081019050919050565b600067ffffffffffffffff821115611fa557600080fd5b601f19601f8301169050602081019050919050565b600067ffffffffffffffff821115611fd157600080fd5b601f19601f8301169050602081019050919050565b6000602082019050919050565b6000602082019050919050565b600081519050919050565b600081519050919050565b600081519050919050565b6000602082019050919050565b6000602082019050919050565b600061204682612059565b9050919050565b60008115159050919050565b600073ffffffffffffffffffffffffffffffffffffffff82169050919050565b6000819050919050565b600061208e82612059565b9050919050565b6000819050919050565b82818337600083830152505050565b60005b838110156120cc5780820151818401526020810190506120b1565b838111156120db576000848401525b50505050565b6000601f19601f830116905091905056fea265627a7a72305820e552776606bbcb68c341c0e3fd2dcc6baee7f60b3cf1520d5a20dba1ae4269476c6578706572696d656e74616cf50037",
  "source": "// SPDX-License-Identifier: MIT\npragma solidity >=0.5.0 <0.8.0;\npragma experimental ABIEncoderV2;\n\ncontract Marketplace {\n    struct estate {\n        string _name;\n        string _postalAddress;\n        string[] _images;\n        uint _price;\n        address payable _ownerEstate;\n        bool _selling;\n    }\n\n    string[] _sales;\n    address payable _owner;\n    estate[] _estates;\n\n    mapping(address => uint[]) _ownerEstate;\n    mapping(uint => estate) _idEstate;\n\n    constructor() public {\n        _owner = msg.sender;\n    }\n\n\n    function createEstate(string memory nom, string memory adres, uint price, string[] memory img) public {\n        require(price > 10, \"le prix doit etre superieur a 10\");\n        estate memory create = estate(nom, adres, img, price, msg.sender, false);\n        _estates.push(create);\n        uint id = _estates.length - 1;\n        _idEstate[id] = create;\n        _ownerEstate[msg.sender].push(id);\n    }\n\n    function setEstateSale(uint id) public {\n        require(_estates[id]._ownerEstate == msg.sender, \"tu n'est pas proprietaire du bien\");\n        _estates[id]._selling = true;\n    }\n\n    function setPrice(uint id, uint newPrice) public {\n        require(_estates[id]._ownerEstate == msg.sender, \"tu n'est pas proprietaire du bien\");\n        _estates[id]._price = newPrice;\n    }\n\n    function setPostalAddress(uint id, string memory newPostalAddress) public {\n        require(_estates[id]._ownerEstate == msg.sender, \"tu n'est pas proprietaire du bien\");\n        _estates[id]._postalAddress = newPostalAddress;\n    }\n\n    function setName(uint id, string memory newName) public {\n        require(_estates[id]._ownerEstate == msg.sender, \"tu n'est pas proprietaire du bien\");\n        _estates[id]._name = newName;\n    }\n\n    function cancelEstateSale(uint id) public {\n        require(_estates[id]._ownerEstate == msg.sender, \"tu n'est pas proprietaire du bien\");\n        _estates[id]._selling = false;\n    }\n\n    function BuyEstate(uint id) public payable {\n        require(_estates[id]._selling, \"n'est pas en vente\");\n\n        address payable seller = _estates[id]._ownerEstate;\n\n        uint price = _estates[id]._price;\n\n        require(msg.value >= price, 'Manque de la thune');\n\n        uint commission = msg.value / 10;\n        uint sale = msg.value - commission;\n\n        seller.transfer(sale);\n        _owner.transfer(commission);\n\n        _estates[id]._ownerEstate = msg.sender;\n        _estates[id]._selling = false;\n    }\n\n    function getAllEstates() public view returns (estate[] memory){\n        return _estates;\n    }\n\n    function getEstateByAddress(address addr) public view returns (estate[] memory){\n        estate[] memory estatesList;\n        uint[] memory estateIds = _ownerEstate[addr];\n        for (uint i = 0; i < estateIds.length; i++) {\n            estatesList[i] = _idEstate[estateIds[i]];\n        }\n        return estatesList;\n    }\n\n    function getEstateById(uint id) public view returns (estate memory){\n        return _idEstate[id];\n    }\n}",
  "sourcePath": "/home/mathieu/Bureau/ismav2/estate_marketplace-main/src/contracts/Marketplace.sol",
  "compiler": {
    "name": "solc",
    "version": "0.5.0+commit.1d4f565a.Emscripten.clang"
  },
  "schemaVersion": "3.0.2",
  "updatedAt": "2021-03-01T17:06:08.509Z",
  "devdoc": {
    "methods": {}
  },
  "userdoc": {
    "methods": {}
  }
}